:020000040800F2
:100000000000022055100008F50300080304000852
:10001000090400080F04000815040008000000008F
:100020000000000000000000000000001B040008A9
:1000300029040008000000003704000845040008F7
:100040009D1000089D1000089D1000089D100008DC
:100050009D1000089D1000089D1000089D100008CC
:100060009D1000089D1000089D1000089D100008BC
:100070009D1000089D1000089D1000089D100008AC
:100080009D1000089D1000089D1000089D1000089C
:100090009D1000089D1000089D1000089D1000088C
:1000A0009D1000089D1000089D1000089D1000087C
:1000B0009D1000089D1000089D1000089D1000086C
:1000C0009D1000089D1000089D1000089D1000085C
:1000D0009D1000089D1000089D1000089D1000084C
:1000E0009D1000089D1000089D1000089D1000083C
:1000F0009D1000089D1000089D1000089D1000082C
:100100009D1000089D1000089D1000089D1000081B
:100110009D1000089D1000089D1000089D1000080B
:100120009D1000089D1000089D1000089D100008FB
:100130009D1000089D1000089D1000089D100008EB
:100140009D1000089D1000089D1000089D100008DB
:100150009D1000089D1000089D1000089D100008CB
:100160009D1000089D1000089D1000089D100008BB
:100170009D1000089D1000089D1000089D100008AB
:080180009D1000089D1000080D
:10018800044B05481B1A062B02D9044B03B1184728
:10019800704700BF5F0400205C04002000000000DE
:1001A80005490648091A891001EBD171491002D096
:1001B800034B03B1184770475C0400205C0400201F
:1001C8000000000010B5064C237843B9FFF7D8FFAC
:1001D800044B13B10448AFF300800123237010BD12
:1001E8005C04002000000000BC10000808B5084BA3
:1001F8001BB108490848AFF300800848036813B9E1
:10020800BDE80840CCE7064B002BF9D09847F7E744
:100218000000000060040020BC1000085804002002
:1002280000000000134B002B08BF114B9D46A3F59F
:10023800803A00218B460F461148124A121A00F0E4
:10024800FBFD0D4B002B00D098470C4B002B00D02A
:1002580098470020002104000D000B4800F094FD91
:1002680000F0C2FD2000290000F056F800F092FDD1
:10027800000008000000000000000000000000006E
:100288005C04002080040020BD0D000880B487B005
:1002980000AFF860B9607A6000237B6100237B615E
:1002A8000AE0FA687B691344B9687A690A441278E3
:1002B8001A707B6901337B617A697B689A42F0D353
:1002C80000BF1C37BD465DF8047B704780B58EB013
:1002D80000AF786039603B68022B19DD7B681B78BA
:1002E800412B16D17B6801331B78442B11D17B68D5
:1002F80002331B78462B0CD17B68591D7B6804336D
:100308001B781A4607F10C031846FFF7BFFF00E0F9
:1003180000BF3837BD4680BD80B584B000AF01212D
:10032800082000F009FB254B4FF470421A60234B5C
:1003380001221A71214B00229A71204B03225A7113
:100348001E4B0022DA711D491D4800F073FC4FF462
:1003580080511B4800F0F2FC1A4800F037F84FF4BF
:100368000051174800F0EAFC164800F02FF84FF447
:100378008041134800F0E2FC124800F027F84FF4DF
:1003880000410F4800F0DAFC0F4800F01FF84FF466
:1003980070410B4800F0D4FC0023FB600023BB60D5
:1003A800B968F868FFF792FF00237B607B680F331A
:1003B8003B606FF07F4000F009F8C8E77804002040
:1003C800000C0240FFFF3F00FFFF7F0080B483B0B6
:1003D80000AF786000BF7B685A1E7A60002BFAD1A4
:1003E80000BF0C37BD465DF8047B704780B400AF92
:1003F80000BFBD465DF8047B704780B400AFFEE7E0
:1004080080B400AFFEE780B400AFFEE780B400AF71
:10041800FEE780B400AF00BFBD465DF8047B7047BF
:1004280080B400AF00BFBD465DF8047B704780B460
:1004380000AF00BFBD465DF8047B704780B400AFD5
:1004480000BFBD465DF8047B7047000080B500AF73
:10045800124A124B1B6843F0010313600F4B002232
:100468009A600E4A0D4B1B6823F0847323F4803383
:1004780013600A4B0A4A5A60084A084B1B6823F45F
:1004880080231360054B0022DA6000F089F8054BE1
:100498004FF000629A6000BF80BD00BF0038024084
:1004A8001030002400ED00E080B487B000AF0023D6
:1004B8003B6100237B610223FB600023BB600223B6
:1004C8007B60324B9B6803F00C033B613B69042B58
:1004D80007D0082B09D0002B3DD12D4B2D4A1A608F
:1004E8003DE02B4B2C4A1A6039E0284B5B689B0D8A
:1004F80003F00103BB60254B5B6803F03F037B609F
:10050800BB68002B0CD0244A7B68B2FBF3F31F4A6C
:1005180052689209C2F3080202FB03F37B610BE005
:100528001C4A7B68B2FBF3F3184A52689209C2F37B
:10053800080202FB03F37B61144B5B681B0C03F09E
:10054800030301335B00FB607A69FB68B2FBF3F3DA
:100558000F4A136003E00E4B0E4A1A6000BF0B4BA4
:100568009B681B0903F00F030C4AD35CDBB23B61A9
:10057800074B1A683B6922FA03F3054A136000BF68
:100588001C37BD465DF8047B704700BF0038024049
:10059800040000200024F40040787D0108000020B9
:1005A80080B483B000AF00237B6000233B60364AF1
:1005B800354B1B6843F480331360334B1B6803F4DB
:1005C80000333B607B6801337B603B68002B03D1C1
:1005D8007B68B3F5A06FF0D12B4B1B6803F4003395
:1005E800002B02D001233B6001E000233B603B6805
:1005F800012B42D1244A244B1B6C43F080531364D3
:10060800224A224B1B6843F4804313601E4A1E4B48
:100618009B6893601C4A1C4B9B6843F4004393609F
:10062800194A194B9B6843F4A0539360164B184A18
:100638005A60154A144B1B6843F08073136000BF5F
:10064800114B1B6803F00073002BF9D0114B40F2DB
:1006580005621A600C4A0C4B9B6823F003039360F5
:10066800094A094B9B6843F00203936000BF064B9D
:100678009B6803F00C03082BF9D100BF0C37BD466B
:100688005DF8047B704700BF0038024000700040EE
:1006980008544007003C0240EC100008000000200D
:1006A800580400205C040020800400200A4B0B48FA
:1006B8001A68002142F001021A6099601A6822F053
:1006C800847222F480321A6058601A6822F48022F8
:1006D8001A60D960704700BF00380240103000240B
:1006E800024B00221A701870704700BF023802408F
:1006F80082B000230A4A019302E0B3F5A06F08D044
:10070800136813F4003F019B03F101030193019B5C
:10071800F3D0034B1868C0F3404002B0704700BFE5
:1007280000380240034A136823F0F80343EAC00084
:100738001060704700380240014B1860704700BFD6
:1007480000004742064B002201281A701A7005D093
:10075800042802D105221A70704770471870704734
:1007680070380240014B1860704700BF800E474246
:1007780030B4029C064D40EA04605B080843013B24
:1007880040EA821040EA0340686030BC704700BF0E
:1007980000380240014B1860704700BF60004742B4
:1007A8000907034B41EA8011C3F88410704700BF62
:1007B80000380240014B1860704700BF680047428C
:1007C800014B1860704700BF4C004742034A9368CA
:1007D80023F0EC63194301439160704700380240ED
:1007E800034A936823F078431943014391607047A3
:1007F80000380240034A936823F0030318439060CB
:10080800704700BF00380240024B986800F00C00A7
:10081800704700BF00380240034A936823F0F00392
:1008280018439060704700BF00380240034A93683D
:1008380023F4E05318439060704700BF003802402B
:10084800034A936823F4604343EAC000906070470A
:10085800003802401F4A936803F00C03042B10B4BD
:100868001BD0082B1CD01C4B03601A4A1B499468E8
:10087800C4F303140C5DE34043609468C4F382241A
:100888000C5D23FA04F4846092685DF8044BC2F3AB
:1008980042328A5CD340C3607047114B0360E4E77F
:1008A8005468516852686302C2F3881201F03F012C
:1008B8004CBF0B4B084BB3FBF1F303FB02F3054AA8
:1008C8005268C2F3014201325200B3FBF2F30360F3
:1008D800CBE700BF003802400024F40018000020D5
:1008E80040787D0100F44073B3F5407F09D1084991
:1008F8008A6820F0704322F4F81223F440731343FB
:100908008B60034B1A6FC0F30B00104318677047D6
:1009180000380240014B1860704700BF3C0E474248
:10092800014B1860704700BF400E4742014B1860EA
:10093800704700BF5C014742044A136B19B923EAA8
:100948000000106370471843106370470038024076
:10095800044A536B19B923EA0000506370471843DF
:100968005063704700380240044A936B19B923EA70
:100978000000906370471843906370470038024046
:10098800044A136C19B923EA00001064704718432D
:100998001064704700380240044A536C19B923EABE
:1009A8000000506470471843506470470038024094
:1009B800044A136919B923EA000010617047184303
:1009C8001061704700380240044A536919B923EA94
:1009D800000050617047184350617047003802406A
:1009E800044A936919B923EA0000906170471843D3
:1009F8009061704700380240044A136A19B923EA23
:100A080000001062704718431062704700380240B7
:100A1800044A536A19B923EA000050627047184320
:100A28005062704700380240044A136D19B923EA2E
:100A38000000106570471843106570470038024081
:100A4800044A536D19B923EA0000506570471843EA
:100A58005065704700380240044A936D19B923EA7B
:100A68000000906570471843906570470038024051
:100A7800044A136E19B923EA000010667047184338
:100A88001066704700380240044A536E19B923EAC9
:100A9800000050667047184350667047003802409F
:100AA800044A137819B923EA0000107070471843F4
:100AB800107070470D3802404309012B0BD0022BF0
:100AC800094B0CBF1B6F5B6F00F01F0023FA00F08F
:100AD80000F001007047044B1B6800F01F0023FA68
:100AE80000F000F00100704700380240024A536FDE
:100AF80043F080735367704700380240034BDB684C
:100B0800184214BF01200020704700BF003802407F
:100B1800014B1870704700BF0E38024008B53C4BB7
:100B2800984224D03B4B98422BD03B4B984232D032
:100B38003A4B984239D03A4B984240D0394B984278
:100B480047D0394B98424ED0384B984255D0384B05
:100B5800984200D008BD01214FF48070FFF728FFAC
:100B680000214FF48070BDE80840FFF721BF012144
:100B78000846FFF71DFF00210120BDE80840FFF7E8
:100B880017BF01210220FFF713FF00210220BDE853
:100B98000840FFF70DBF01210420FFF709FF0021DE
:100BA8000420BDE80840FFF703BF01210820FFF734
:100BB800FFFE00210820BDE80840FFF7F9BE01212B
:100BC8001020FFF7F5FE00211020BDE80840FFF7D0
:100BD800EFBE01212020FFF7EBFE00212020BDE819
:100BE8000840FFF7E5BE01214020FFF7E1FE0021A4
:100BF8004020BDE80840FFF7DBBE01218020FFF759
:100C0800D7FE00218020BDE80840FFF7D1BE00BF15
:100C1800000002400004024000080240000C0240AC
:100C2800001002400014024000180240001C02405C
:100C38000020024000222DE9F0471346D1F800E0D9
:100C480001274FF0030C04E00133102B02F10202DC
:100C580029D007FA03F434EA0E05F5D1D0F800805C
:100C68000E790CFA02F5ED4308EA0508C0F8008091
:100C7800D0F800A006FA02F9013E49EA0A09012E55
:100C88000CFA02F8C0F800900FD9C568CC7925EAAB
:100C98000805C560C568944001332C43102BC46017
:100CA80002F10202D5D1BDE8F087D0F808904E795C
:100CB80005EA09058560D0F808908D79964046EADE
:100CC80009068660466826EA04044460466805FA10
:100CD80003F4A4B234434460D7E700BF00234FF6BF
:100CE800FF720260037143718371C371704700BF63
:100CF80082B04FF480330193019B0B430193019B16
:100D0800C361C161019BC361C3690193C369019355
:100D180002B070470369194214BF012000207047D0
:100D2800006980B2704700BF4369194214BF0120AF
:100D380000207047406980B2704700BF0183704748
:100D4800418370470AB9418370470183704700BFE8
:100D5800416170474369594041617047CB0800EBD6
:100D6800830001F0070110B4036A89000F248C4046
:100D780023EA04030362036A5DF8044B02FA01F1F3
:100D880019430162704700BF002301461A461846FE
:100D980000F0A0B808B50021044600F0EDF8044BB7
:100DA8001868C36B03B19847204600F091F900BF5B
:100DB800B410000838B50A4C0A4D641BA4100AD0B8
:100DC80004F18043013B05EB8305013C55F80439E8
:100DD8009847002CF9D1BDE8384000F073B900BF3E
:100DE800EC100008E810000870B50F4E0F4D761B88
:100DF800B61018BF002405D0013455F8043B9847B5
:100E0800A642F9D10A4E0B4D761B00F055F9B610E3
:100E180018BF002406D0013455F8043B9847A64271
:100E2800F9D170BD70BD00BFE0100008E0100008E7
:100E3800E8100008E010000870B4860746D0541E79
:100E4800002A41D0CAB2034602E014F1FF343BD372
:100E580003F8012B9D07F8D1032C2ED9CDB245EA12
:100E680005250F2C45EA054519D903F11002264638
:100E7800103E0F2E42F8105C42F80C5C42F8085CF9
:100E880042F8045C02F11002F2D8A4F1100222F038
:100E98000F0204F00F041032032C13440DD91E4620
:100EA8002246043A032A46F8045BFAD8221F22F0A5
:100EB80003020432134404F003042CB1C9B21C44E5
:100EC80003F8011B9C42FBD170BC704714460346D3
:100ED800C2E700BF2DE9F047254C2568D5F8484101
:100EE8000646884692469946C4B360681F2817DCB0
:100EF800431C76B104EB80050122C5F888A0D4F81C
:100F0800881182401143022EC4F88811C5F808914F
:100F18001ED00230636044F820800020BDE8F087CE
:100F2800144B03B34FF4C870AFF300800446D0B13C
:100F3800D5F84831002780E88800C5F84841384688
:100F48000123C4F88871C4F88C71002EE1D0D1E770
:100F5800D4F88C110A43C4F88C21DAE705F5A67495
:100F6800C5F84841C1E74FF0FF30BDE8F08700BF42
:100F7800B4100008000000002DE9F04F314B85B097
:100F88001B68029303F5A47301900E460393029B1A
:100F9800D3F8487137B3DDF80CA04FF00109D346F8
:100FA8007C68651E0ED4013407EB84044FF00008FA
:100FB800DEB1D4F800319E4217D0013D6B1CA4F17C
:100FC8000404F5D1204B6BB17B68002B35D13B680D
:100FD80043B13846CBF80030AFF30080DBF800703F
:100FE800002FDDD105B0BDE8F08F7B682268013B9A
:100FF800AB420CBF7D60C4F80080002ADDD0D7F872
:101008008811D7F804A009FA05F30B420FD0D7F8D6
:101018008C110B420DD1D4F88010019890477B6851
:101028005345B4D1DBF80030BB42C6D0AFE7904798
:10103800F5E7D4F880009047F1E7BB463F68002FFA
:10104800AED1CFE7B410000800000000002103E093
:101058000B4B5B58435004310A480B4B42189A42D9
:10106800F6D30A4A02E0002342F8043B084B9A42AE
:10107800F9D3FFF7EBF9FFF7B7FEFFF74DF9704724
:10108800EC10000800000020580400205C04002038
:1010980080040020FEE70000024B13B10248FFF76E
:1010A80073BE704700000000BD0D0008300000202E
:1010B8004300000000000000F8B500BFF8BC08BC01
:1010C8009E467047F8B500BFF8BC08BC9E467047FE
:0810D80054F1FF7F010000004C
:0810E000A1100008F501000851
:0410E800CD0100082E
:1010EC0000000000007A030A00000000000000006D
:1010FC0001020304060708090000000001020304B2
:10110C00010203040607080930000020000000005B
:10111C00000000001C03002084030020EC030020CE
:10112C0000000000000000000000000000000000B3
:10113C0000000000000000000000000000000000A3
:10114C0000000000B81000080000000000000000C3
:10115C000000000000000000000000000000000083
:10116C000000000000000000000000000000000073
:10117C000000000000000000000000000000000063
:10118C000000000000000000000000000000000053
:10119C000000000000000000000000000000000043
:1011AC000000000000000000000000000000000033
:1011BC000000000000000000010000000000000022
:1011CC000E33CDAB34126DE6ECDE05000B000000E7
:1011DC000000000000000000000000000000000003
:1011EC0000000000000000000000000000000000F3
:1011FC0000000000000000000000000000000000E3
:10120C0000000000000000000000000000000000D2
:0415440000000000A3
:04000005080010558A
:00000001FF
